:020000040800F2
:1000000000000820450000084100000841000008E9
:100010004100000841000008410000080000000005
:100020000000000000000000000000004100000887
:1000300041000008000000004100000841000008E5
:10004000FEE700BF08B54FF000624FF0E023C3F8B1
:10005000082DD3F8882D42F47002C3F8882DBFF321
:100060004F8FBFF36F8F124A12498A420DD2013966
:100070001148891A034621F003010431014453F861
:10008000040B8B4242F8040BF9D10C4A0C498A420A
:100090000BD2013913460020891A21F003010431E3
:1000A0000A4443F8040B9342FBD100F00BF8FEE73F
:1000B0000000002000000020EC01000800000020EB
:1000C00000000020464900204FF0E02343F67F6CFB
:1000D000052200B5C3F814C040F2F23E98611A61DF
:1000E000D1F830C83F4A4CF0100CC1F830C8D1F8F4
:1000F00030C8D2F800C02CF4402CC2F800C0D2F8AE
:1001000000C04CF4002CC2F800C0D2F804C02CF49B
:10011000007CC2F804C0D2F80CC02CF4402CC2F809
:100120000CC0D2F808C04CF4402CC2F808C0D2F879
:1001300024C02CF0F00CC2F824C0D2F824C04CF03B
:10014000100CC2F824C0D1F84428DFF89CC042F05B
:100150000102C1F84428D1F844280F22CCF800004D
:100160000121CCF8282040F2E732CCF82C2068227C
:10017000CCF83000CCF81820CCF83400CCF82010A3
:10018000DCF8002042F08002CCF80020DCF84420AB
:1001900042F40042CCF84420CCF81410CCF8100003
:1001A000DCF800200A43CCF800200020CCF8340012
:1001B0000A211A691A69D203FCD50139FAD10A3029
:1001C0007045F3D14FF47A70CCF834000A211A69E3
:1001D0001A69D203FCD50139FAD10A38F4D1E4E71F
:0C01E0000030024000100240000001400E
:0400000508000045AA
:00000001FF
