:020000040800F2
:1000000000000820450000084100000841000008E9
:100010004100000841000008410000080000000005
:100020000000000000000000000000004100000887
:1000300041000008000000004100000841000008E5
:10004000FEE700BF08B54FF000624FF0E023C3F8B1
:10005000082DD3F8882D42F47002C3F8882DBFF321
:100060004F8FBFF36F8F124A12498A420DD2013966
:100070001148891A034621F003010431014453F861
:10008000040B8B4242F8040BF9D10C4A0C498A420A
:100090000BD2013913460020891A21F003010431E3
:1000A0000A4443F8040B9342FBD100F00BF8FEE73F
:1000B0000000002000000020AC010008000000202B
:1000C000000000202DE9F0414FF0E022334B43F6D1
:1000D0007F6400200521012754614FF48036906130
:1000E000802511614FF4804ED3F830184FF0804CCA
:1000F0002B4841F00201C3F830182A49D3F83038B0
:10010000D0F80044284B21404FF40004C0F80014FC
:10011000D0F800140B43C0F80034C0F81874C8219C
:1001200013691369DB03FCD50139FAD1C0F81864EF
:10013000C821C0F8185413691369DB03FCD50139D1
:10014000FAD1C0F81844C821C0F818E4136913693B
:10015000DB03FCD50139FAD14FF00408C0F818C40C
:10016000D0F81434962183F00103C0F81434D0F889
:10017000143483F08003C0F81434D0F8143483F4BA
:100180008043C0F8143413691369DB03FCD50139CB
:10019000FAD1B8F10108E3D1BFE700BF0030024057
:0C01A00000000240FC3FFFCF01400010B7
:0400000508000045AA
:00000001FF
